{
  "_format": "hh-sol-artifact-1",
  "contractName": "WavePortal",
  "sourceName": "contracts/WavePortal.sol",
  "abi": [
    {
      "inputs": [],
      "stateMutability": "nonpayable",
      "type": "constructor"
    },
    {
      "anonymous": false,
      "inputs": [
        {
          "indexed": true,
          "internalType": "address",
          "name": "from",
          "type": "address"
        },
        {
          "indexed": false,
          "internalType": "uint256",
          "name": "timestamp",
          "type": "uint256"
        },
        {
          "indexed": false,
          "internalType": "string",
          "name": "title",
          "type": "string"
        },
        {
          "indexed": false,
          "internalType": "string",
          "name": "message",
          "type": "string"
        }
      ],
      "name": "NewWave",
      "type": "event"
    },
    {
      "inputs": [],
      "name": "getAllWaves",
      "outputs": [
        {
          "components": [
            {
              "internalType": "address",
              "name": "waver",
              "type": "address"
            },
            {
              "internalType": "string",
              "name": "title",
              "type": "string"
            },
            {
              "internalType": "string",
              "name": "message",
              "type": "string"
            },
            {
              "internalType": "uint256",
              "name": "timestamp",
              "type": "uint256"
            }
          ],
          "internalType": "struct WavePortal.Wave[]",
          "name": "",
          "type": "tuple[]"
        }
      ],
      "stateMutability": "view",
      "type": "function"
    },
    {
      "inputs": [],
      "name": "getTotalWaves",
      "outputs": [
        {
          "internalType": "uint256",
          "name": "",
          "type": "uint256"
        }
      ],
      "stateMutability": "view",
      "type": "function"
    },
    {
      "inputs": [
        {
          "internalType": "string",
          "name": "_title",
          "type": "string"
        },
        {
          "internalType": "string",
          "name": "_message",
          "type": "string"
        }
      ],
      "name": "wave",
      "outputs": [],
      "stateMutability": "nonpayable",
      "type": "function"
    }
  ],
  "bytecode": "0x60806040523480156200001157600080fd5b506200005d6040518060400160405280601f81526020017f436f6e737472756374696e672057617665506f7274616c436f6e7472616374008152506200006360201b6200046b1760201c565b620001f7565b62000103816040516024016200007a919062000170565b6040516020818303038152906040527f41304fac000000000000000000000000000000000000000000000000000000007bffffffffffffffffffffffffffffffffffffffffffffffffffffffff19166020820180517bffffffffffffffffffffffffffffffffffffffffffffffffffffffff83818316178352505050506200010660201b60201c565b50565b60008151905060006a636f6e736f6c652e6c6f679050602083016000808483855afa5050505050565b60006200013c8262000194565b6200014881856200019f565b93506200015a818560208601620001b0565b6200016581620001e6565b840191505092915050565b600060208201905081810360008301526200018c81846200012f565b905092915050565b600081519050919050565b600082825260208201905092915050565b60005b83811015620001d0578082015181840152602081019050620001b3565b83811115620001e0576000848401525b50505050565b6000601f19601f8301169050919050565b610d7880620002076000396000f3fe608060405234801561001057600080fd5b50600436106100415760003560e01c806351872959146100465780639a2cdc0814610062578063bd43a90814610080575b600080fd5b610060600480360381019061005b9190610776565b61009e565b005b61006a61023d565b6040516100779190610a51565b60405180910390f35b610088610288565b6040516100959190610983565b60405180910390f35b60016000808282546100b09190610b6d565b925050819055506100f86040518060400160405280600b81526020017f2573206973207761766564000000000000000000000000000000000000000000815250338484610504565b600160405180608001604052803373ffffffffffffffffffffffffffffffffffffffff16815260200184815260200183815260200142815250908060018154018082558091505060019003906000526020600020906004020160009091909190915060008201518160000160006101000a81548173ffffffffffffffffffffffffffffffffffffffff021916908373ffffffffffffffffffffffffffffffffffffffff16021790555060208201518160010190805190602001906101bd92919061066b565b5060408201518160020190805190602001906101da92919061066b565b506060820151816003015550503373ffffffffffffffffffffffffffffffffffffffff167f0646f10b0148fe8db9a43af10b6956b53e1478c47afc7132c17e243449dfd33942848460405161023193929190610a6c565b60405180910390a25050565b60006102806040518060400160405280601681526020017f5765206861766520256420746f74616c207761766573000000000000000000008152506000546105a6565b600054905090565b60606001805480602002602001604051908101604052809291908181526020016000905b8282101561046257838290600052602060002090600402016040518060800160405290816000820160009054906101000a900473ffffffffffffffffffffffffffffffffffffffff1673ffffffffffffffffffffffffffffffffffffffff1673ffffffffffffffffffffffffffffffffffffffff16815260200160018201805461033590610c41565b80601f016020809104026020016040519081016040528092919081815260200182805461036190610c41565b80156103ae5780601f10610383576101008083540402835291602001916103ae565b820191906000526020600020905b81548152906001019060200180831161039157829003601f168201915b505050505081526020016002820180546103c790610c41565b80601f01602080910402602001604051908101604052809291908181526020018280546103f390610c41565b80156104405780601f1061041557610100808354040283529160200191610440565b820191906000526020600020905b81548152906001019060200180831161042357829003601f168201915b50505050508152602001600382015481525050815260200190600101906102ac565b50505050905090565b6105018160405160240161047f91906109a5565b6040516020818303038152906040527f41304fac000000000000000000000000000000000000000000000000000000007bffffffffffffffffffffffffffffffffffffffffffffffffffffffff19166020820180517bffffffffffffffffffffffffffffffffffffffffffffffffffffffff8381831617835250505050610642565b50565b6105a08484848460405160240161051e94939291906109c7565b6040516020818303038152906040527f245986f2000000000000000000000000000000000000000000000000000000007bffffffffffffffffffffffffffffffffffffffffffffffffffffffff19166020820180517bffffffffffffffffffffffffffffffffffffffffffffffffffffffff8381831617835250505050610642565b50505050565b61063e82826040516024016105bc929190610a21565b6040516020818303038152906040527f9710a9d0000000000000000000000000000000000000000000000000000000007bffffffffffffffffffffffffffffffffffffffffffffffffffffffff19166020820180517bffffffffffffffffffffffffffffffffffffffffffffffffffffffff8381831617835250505050610642565b5050565b60008151905060006a636f6e736f6c652e6c6f679050602083016000808483855afa5050505050565b82805461067790610c41565b90600052602060002090601f01602090048101928261069957600085556106e0565b82601f106106b257805160ff19168380011785556106e0565b828001600101855582156106e0579182015b828111156106df5782518255916020019190600101906106c4565b5b5090506106ed91906106f1565b5090565b5b8082111561070a5760008160009055506001016106f2565b5090565b600061072161071c84610ad6565b610ab1565b90508281526020810184848401111561073957600080fd5b610744848285610bff565b509392505050565b600082601f83011261075d57600080fd5b813561076d84826020860161070e565b91505092915050565b6000806040838503121561078957600080fd5b600083013567ffffffffffffffff8111156107a357600080fd5b6107af8582860161074c565b925050602083013567ffffffffffffffff8111156107cc57600080fd5b6107d88582860161074c565b9150509250929050565b60006107ee83836108fb565b905092915050565b6107ff81610bc3565b82525050565b61080e81610bc3565b82525050565b600061081f82610b17565b6108298185610b3a565b93508360208202850161083b85610b07565b8060005b85811015610877578484038952815161085885826107e2565b945061086383610b2d565b925060208a0199505060018101905061083f565b50829750879550505050505092915050565b600061089482610b22565b61089e8185610b4b565b93506108ae818560208601610c0e565b6108b781610d31565b840191505092915050565b60006108cd82610b22565b6108d78185610b5c565b93506108e7818560208601610c0e565b6108f081610d31565b840191505092915050565b600060808301600083015161091360008601826107f6565b506020830151848203602086015261092b8282610889565b915050604083015184820360408601526109458282610889565b915050606083015161095a6060860182610965565b508091505092915050565b61096e81610bf5565b82525050565b61097d81610bf5565b82525050565b6000602082019050818103600083015261099d8184610814565b905092915050565b600060208201905081810360008301526109bf81846108c2565b905092915050565b600060808201905081810360008301526109e181876108c2565b90506109f06020830186610805565b8181036040830152610a0281856108c2565b90508181036060830152610a1681846108c2565b905095945050505050565b60006040820190508181036000830152610a3b81856108c2565b9050610a4a6020830184610974565b9392505050565b6000602082019050610a666000830184610974565b92915050565b6000606082019050610a816000830186610974565b8181036020830152610a9381856108c2565b90508181036040830152610aa781846108c2565b9050949350505050565b6000610abb610acc565b9050610ac78282610c73565b919050565b6000604051905090565b600067ffffffffffffffff821115610af157610af0610d02565b5b610afa82610d31565b9050602081019050919050565b6000819050602082019050919050565b600081519050919050565b600081519050919050565b6000602082019050919050565b600082825260208201905092915050565b600082825260208201905092915050565b600082825260208201905092915050565b6000610b7882610bf5565b9150610b8383610bf5565b9250827fffffffffffffffffffffffffffffffffffffffffffffffffffffffffffffffff03821115610bb857610bb7610ca4565b5b828201905092915050565b6000610bce82610bd5565b9050919050565b600073ffffffffffffffffffffffffffffffffffffffff82169050919050565b6000819050919050565b82818337600083830152505050565b60005b83811015610c2c578082015181840152602081019050610c11565b83811115610c3b576000848401525b50505050565b60006002820490506001821680610c5957607f821691505b60208210811415610c6d57610c6c610cd3565b5b50919050565b610c7c82610d31565b810181811067ffffffffffffffff82111715610c9b57610c9a610d02565b5b80604052505050565b7f4e487b7100000000000000000000000000000000000000000000000000000000600052601160045260246000fd5b7f4e487b7100000000000000000000000000000000000000000000000000000000600052602260045260246000fd5b7f4e487b7100000000000000000000000000000000000000000000000000000000600052604160045260246000fd5b6000601f19601f830116905091905056fea2646970667358221220c973c753fa276bcfb3502ad2e08e1d7ebceda5d353811d805755f3beecf510d064736f6c63430008040033",
  "linkReferences": {},
  "deployedLinkReferences": {}
}